{
  "_format": "hh-sol-artifact-1",
  "contractName": "Forwarder",
  "sourceName": "contracts/forwarder.sol",
  "abi": [
    {
      "inputs": [
        {
          "internalType": "address",
          "name": "solver",
          "type": "address"
        }
      ],
      "stateMutability": "nonpayable",
      "type": "constructor"
    },
    {
      "inputs": [],
      "name": "NativeTransferFailed",
      "type": "error"
    },
    {
      "anonymous": false,
      "inputs": [
        {
          "indexed": false,
          "internalType": "uint256",
          "name": "ID",
          "type": "uint256"
        }
      ],
      "name": "FundsForwardedInt",
      "type": "event"
    },
    {
      "anonymous": false,
      "inputs": [
        {
          "indexed": false,
          "internalType": "bytes",
          "name": "data",
          "type": "bytes"
        }
      ],
      "name": "FundsForwardedWithData",
      "type": "event"
    },
    {
      "stateMutability": "payable",
      "type": "fallback"
    },
    {
      "inputs": [
        {
          "internalType": "bytes",
          "name": "data",
          "type": "bytes"
        }
      ],
      "name": "forward",
      "outputs": [],
      "stateMutability": "payable",
      "type": "function"
    },
    {
      "inputs": [
        {
          "internalType": "uint256",
          "name": "ID",
          "type": "uint256"
        }
      ],
      "name": "forwardInt",
      "outputs": [],
      "stateMutability": "payable",
      "type": "function"
    }
  ],
  "bytecode": "0x60a0604052348015600f57600080fd5b50604051610335380380610335833981016040819052602c91603c565b6001600160a01b0316608052606a565b600060208284031215604d57600080fd5b81516001600160a01b0381168114606357600080fd5b9392505050565b6080516102a461009160003960008181602e0152818160f0015261015001526102a46000f3fe6080604052600436106100295760003560e01c80634a9f3c4a1461008f578063d948d468146100a4575b6100537f0000000000000000000000000000000000000000000000000000000000000000346100b7565b7f936c2ca3b35d2d0b24057b0675c459e4515f48fe132d138e213ae59ffab7f53e6000366040516100859291906101b2565b60405180910390a1005b6100a261009d3660046101e1565b6100eb565b005b6100a26100b23660046101fa565b61014b565b60008060008060008587620186a0f19050806100e657604051633d2cec6f60e21b815260040160405180910390fd5b505050565b6101157f0000000000000000000000000000000000000000000000000000000000000000346100b7565b6040518181527fd93ca21230ba80668b3a975dea75a03ac4b0d745691de521541c7e629ca7ce499060200160405180910390a150565b6101757f0000000000000000000000000000000000000000000000000000000000000000346100b7565b7f936c2ca3b35d2d0b24057b0675c459e4515f48fe132d138e213ae59ffab7f53e82826040516101a69291906101b2565b60405180910390a15050565b60208152816020820152818360408301376000818301604090810191909152601f909201601f19160101919050565b6000602082840312156101f357600080fd5b5035919050565b6000806020838503121561020d57600080fd5b823567ffffffffffffffff81111561022457600080fd5b8301601f8101851361023557600080fd5b803567ffffffffffffffff81111561024c57600080fd5b85602082840101111561025e57600080fd5b602091909101959094509250505056fea264697066735822122038512513903c4e22e9470298ae387227e46745397664028fedce92675962f70c64736f6c634300081c0033",
  "linkReferences": {},
  "deployedLinkReferences": {}
}