{
  "_format": "hh-sol-artifact-1",
  "contractName": "Forwarder",
  "sourceName": "contracts/forwarder.sol",
  "abi": [
    {
      "inputs": [
        {
          "internalType": "address",
          "name": "solver",
          "type": "address"
        }
      ],
      "stateMutability": "nonpayable",
      "type": "constructor"
    },
    {
      "inputs": [],
      "name": "NativeTransferFailed",
      "type": "error"
    },
    {
      "anonymous": false,
      "inputs": [
        {
          "indexed": false,
          "internalType": "bytes",
          "name": "data",
          "type": "bytes"
        }
      ],
      "name": "FundsForwardedWithData",
      "type": "event"
    },
    {
      "anonymous": false,
      "inputs": [
        {
          "indexed": false,
          "internalType": "uint256",
          "name": "id",
          "type": "uint256"
        }
      ],
      "name": "FundsForwardedWithId",
      "type": "event"
    },
    {
      "stateMutability": "payable",
      "type": "fallback"
    },
    {
      "inputs": [
        {
          "internalType": "bytes",
          "name": "data",
          "type": "bytes"
        }
      ],
      "name": "forwardWithData",
      "outputs": [],
      "stateMutability": "payable",
      "type": "function"
    },
    {
      "inputs": [
        {
          "internalType": "uint256",
          "name": "id",
          "type": "uint256"
        }
      ],
      "name": "forwardWithId",
      "outputs": [],
      "stateMutability": "payable",
      "type": "function"
    }
  ],
  "bytecode": "0x60a0604052348015600f57600080fd5b50604051610335380380610335833981016040819052602c91603c565b6001600160a01b0316608052606a565b600060208284031215604d57600080fd5b81516001600160a01b0381168114606357600080fd5b9392505050565b6080516102a461009160003960008181602e0152818160f0015261015701526102a46000f3fe6080604052600436106100295760003560e01c80636fceb2511461008f578063ae48edf2146100a4575b6100537f0000000000000000000000000000000000000000000000000000000000000000346100b7565b7f936c2ca3b35d2d0b24057b0675c459e4515f48fe132d138e213ae59ffab7f53e6000366040516100859291906101b2565b60405180910390a1005b6100a261009d3660046101e1565b6100eb565b005b6100a26100b2366004610255565b610152565b60008060008060008587620186a0f19050806100e657604051633d2cec6f60e21b815260040160405180910390fd5b505050565b6101157f0000000000000000000000000000000000000000000000000000000000000000346100b7565b7f936c2ca3b35d2d0b24057b0675c459e4515f48fe132d138e213ae59ffab7f53e82826040516101469291906101b2565b60405180910390a15050565b61017c7f0000000000000000000000000000000000000000000000000000000000000000346100b7565b6040518181527fac6d0798196de66bbe83955ad8e7ac812d78e6349fe5b152993e8a32704e98309060200160405180910390a150565b60208152816020820152818360408301376000818301604090810191909152601f909201601f19160101919050565b600080602083850312156101f457600080fd5b823567ffffffffffffffff81111561020b57600080fd5b8301601f8101851361021c57600080fd5b803567ffffffffffffffff81111561023357600080fd5b85602082840101111561024557600080fd5b6020919091019590945092505050565b60006020828403121561026757600080fd5b503591905056fea264697066735822122073d0a71011a77ee54d1689f8237b7ff07368b7d9d36fcefe8ebcbecd5b73efb464736f6c634300081c0033",
  "linkReferences": {},
  "deployedLinkReferences": {}
}