{
  "_format": "hh-sol-artifact-1",
  "contractName": "BalanceViewer",
  "sourceName": "contracts/balanceviewer.sol",
  "abi": [
    {
      "inputs": [
        {
          "internalType": "address[]",
          "name": "users",
          "type": "address[]"
        },
        {
          "internalType": "address[]",
          "name": "tokens",
          "type": "address[]"
        }
      ],
      "name": "batchGetBalances",
      "outputs": [
        {
          "internalType": "bool[][]",
          "name": "allSuccesses",
          "type": "bool[][]"
        },
        {
          "internalType": "uint256[][]",
          "name": "allBalances",
          "type": "uint256[][]"
        }
      ],
      "stateMutability": "view",
      "type": "function"
    },
    {
      "inputs": [
        {
          "internalType": "address",
          "name": "user",
          "type": "address"
        },
        {
          "internalType": "address[]",
          "name": "tokens",
          "type": "address[]"
        }
      ],
      "name": "getBalances",
      "outputs": [
        {
          "internalType": "bool[]",
          "name": "_successes",
          "type": "bool[]"
        },
        {
          "internalType": "uint256[]",
          "name": "_balances",
          "type": "uint256[]"
        }
      ],
      "stateMutability": "view",
      "type": "function"
    }
  ],
  "bytecode": "0x6080604052348015600f57600080fd5b506109498061001f6000396000f3fe608060405234801561001057600080fd5b50600436106100365760003560e01c80636a385ae91461003b5780638721283214610065575b600080fd5b61004e6100493660046105e5565b610086565b60405161005c929190610638565b60405180910390f35b6100786100733660046106bc565b610204565b60405161005c9291906107b2565b606080610094836001610856565b67ffffffffffffffff8111156100ac576100ac61087d565b6040519080825280602002602001820160405280156100d5578160200160208202803683370190505b5091506100e3836001610856565b67ffffffffffffffff8111156100fb576100fb61087d565b604051908082528060200260200182016040528015610124578160200160208202803683370190505b50905060005b838110156101a8576101628686868481811061014857610148610893565b905060200201602081019061015d91906108a9565b6104a9565b84838151811061017457610174610893565b6020026020010184848151811061018d5761018d610893565b6020908102919091010191909152901515905260010161012a565b506001856001600160a01b0316318386869050815181106101cb576101cb610893565b602002602001018387879050815181106101e7576101e7610893565b602002602001018281525082151515158152505050935093915050565b6060808467ffffffffffffffff8111156102205761022061087d565b60405190808252806020026020018201604052801561025357816020015b606081526020019060019003908161023e5790505b5091508467ffffffffffffffff81111561026f5761026f61087d565b6040519080825280602002602001820160405280156102a257816020015b606081526020019060019003908161028d5790505b50905060005b8581101561049f5760006102bd856001610856565b67ffffffffffffffff8111156102d5576102d561087d565b6040519080825280602002602001820160405280156102fe578160200160208202803683370190505b509050600061030e866001610856565b67ffffffffffffffff8111156103265761032661087d565b60405190808252806020026020018201604052801561034f578160200160208202803683370190505b50905060005b868110156103df576103998a8a8681811061037257610372610893565b905060200201602081019061038791906108a9565b89898481811061014857610148610893565b8483815181106103ab576103ab610893565b602002602001018484815181106103c4576103c4610893565b60209081029190910101919091529015159052600101610355565b5060018288889050815181106103f7576103f7610893565b9115156020928302919091019091015288888481811061041957610419610893565b905060200201602081019061042e91906108a9565b6001600160a01b03163181888890508151811061044d5761044d610893565b6020026020010181815250508185848151811061046c5761046c610893565b60200260200101819052508084848151811061048a5761048a610893565b602090810291909101015250506001016102a8565b5094509492505050565b600080823b8082036104bb575061057d565b604080516001600160a01b0387811660248084019190915283518084039091018152604490920183526020820180516001600160e01b03166370a0823160e01b179052915160009283929088169161051391906108cb565b600060405180830381855afa9150503d806000811461054e576040519150601f19603f3d011682016040523d82523d6000602084013e610553565b606091505b50915091508115610579578080602001905181019061057291906108fa565b9350600194505b5050505b9250929050565b80356001600160a01b038116811461059b57600080fd5b919050565b60008083601f8401126105b257600080fd5b50813567ffffffffffffffff8111156105ca57600080fd5b6020830191508360208260051b850101111561057d57600080fd5b6000806000604084860312156105fa57600080fd5b61060384610584565b9250602084013567ffffffffffffffff81111561061f57600080fd5b61062b868287016105a0565b9497909650939450505050565b6040808252835190820181905260009060208501906060840190835b818110156106745783511515835260209384019390920191600101610654565b50508381036020808601919091528551808352918101925085019060005b818110156106b0578251845260209384019390920191600101610692565b50919695505050505050565b600080600080604085870312156106d257600080fd5b843567ffffffffffffffff8111156106e957600080fd5b6106f5878288016105a0565b909550935050602085013567ffffffffffffffff81111561071557600080fd5b610721878288016105a0565b95989497509550505050565b600082825180855260208501945060208160051b8301016020850160005b838110156107a657848303601f190188528151805180855260209182019185019060005b8181101561078d57835183526020938401939092019160010161076f565b50506020998a019990945092909201915060010161074b565b50909695505050505050565b6000604082016040835280855180835260608501915060608160051b86010192506020870160005b8281101561083757868503605f190184528151805180875260209182019187019060005b8181101561081e57835115158352602093840193909201916001016107fe565b50909650505060209384019391909101906001016107da565b50505050828103602084015261084d818561072d565b95945050505050565b8082018082111561087757634e487b7160e01b600052601160045260246000fd5b92915050565b634e487b7160e01b600052604160045260246000fd5b634e487b7160e01b600052603260045260246000fd5b6000602082840312156108bb57600080fd5b6108c482610584565b9392505050565b6000825160005b818110156108ec57602081860181015185830152016108d2565b506000920191825250919050565b60006020828403121561090c57600080fd5b505191905056fea2646970667358221220d2487273be38ea809811b092613843cf112e9d727ba351f5b5c077dd0dd4c9d564736f6c634300081c0033",
  "linkReferences": {},
  "deployedLinkReferences": {}
}