{
  "_format": "hh-sol-artifact-1",
  "contractName": "BalanceViewer",
  "sourceName": "contracts/balanceviewer.sol",
  "abi": [
    {
      "inputs": [
        {
          "internalType": "address",
          "name": "user",
          "type": "address"
        },
        {
          "internalType": "address[]",
          "name": "tokens",
          "type": "address[]"
        }
      ],
      "name": "getBalances",
      "outputs": [
        {
          "internalType": "bool[]",
          "name": "_successes",
          "type": "bool[]"
        },
        {
          "internalType": "uint256[]",
          "name": "_balances",
          "type": "uint256[]"
        }
      ],
      "stateMutability": "view",
      "type": "function"
    },
    {
      "inputs": [
        {
          "internalType": "address[]",
          "name": "users",
          "type": "address[]"
        },
        {
          "internalType": "address[]",
          "name": "tokens",
          "type": "address[]"
        }
      ],
      "name": "getMultiUserBalances",
      "outputs": [
        {
          "components": [
            {
              "internalType": "bool",
              "name": "success",
              "type": "bool"
            },
            {
              "internalType": "uint256",
              "name": "tokenBalance",
              "type": "uint256"
            },
            {
              "internalType": "uint256",
              "name": "nativeBalance",
              "type": "uint256"
            }
          ],
          "internalType": "struct BalanceViewer.UserBalances[]",
          "name": "",
          "type": "tuple[]"
        }
      ],
      "stateMutability": "view",
      "type": "function"
    }
  ],
  "bytecode": "0x6080604052348015600f57600080fd5b5061071e8061001f6000396000f3fe608060405234801561001057600080fd5b50600436106100365760003560e01c80632c5450f81461003b5780636a385ae914610064575b600080fd5b61004e610049366004610466565b610085565b60405161005b91906104d7565b60405180910390f35b610077610072366004610554565b6101e2565b60405161005b9291906105a7565b606060008467ffffffffffffffff8111156100a2576100a261062b565b6040519080825280602002602001820160405280156100f957816020015b6100e6604051806060016040528060001515815260200160008152602001600081525090565b8152602001906001900390816100c05790505b50905060005b858110156101d85760008061016089898581811061011f5761011f610641565b90506020020160208101906101349190610657565b88888681811061014657610146610641565b905060200201602081019061015b9190610657565b610346565b91509150604051806060016040528083151581526020018281526020018a8a8681811061018f5761018f610641565b90506020020160208101906101a49190610657565b6001600160a01b0316318152508484815181106101c3576101c3610641565b602090810291909101015250506001016100ff565b5095945050505050565b6060806101f0836001610679565b67ffffffffffffffff8111156102085761020861062b565b604051908082528060200260200182016040528015610231578160200160208202803683370190505b50915061023f836001610679565b67ffffffffffffffff8111156102575761025761062b565b604051908082528060200260200182016040528015610280578160200160208202803683370190505b50905060005b838110156102ea576102a48686868481811061014657610146610641565b8483815181106102b6576102b6610641565b602002602001018484815181106102cf576102cf610641565b60209081029190910101919091529015159052600101610286565b506001856001600160a01b03163183868690508151811061030d5761030d610641565b6020026020010183878790508151811061032957610329610641565b602002602001018281525082151515158152505050935093915050565b600080823b808203610358575061041a565b604080516001600160a01b0387811660248084019190915283518084039091018152604490920183526020820180516001600160e01b03166370a0823160e01b17905291516000928392908816916103b091906106a0565b600060405180830381855afa9150503d80600081146103eb576040519150601f19603f3d011682016040523d82523d6000602084013e6103f0565b606091505b50915091508115610416578080602001905181019061040f91906106cf565b9350600194505b5050505b9250929050565b60008083601f84011261043357600080fd5b50813567ffffffffffffffff81111561044b57600080fd5b6020830191508360208260051b850101111561041a57600080fd5b6000806000806040858703121561047c57600080fd5b843567ffffffffffffffff81111561049357600080fd5b61049f87828801610421565b909550935050602085013567ffffffffffffffff8111156104bf57600080fd5b6104cb87828801610421565b95989497509550505050565b602080825282518282018190526000918401906040840190835b8181101561052d5783518051151584526020810151602085015260408101516040850152506060830192506020840193506001810190506104f1565b509095945050505050565b80356001600160a01b038116811461054f57600080fd5b919050565b60008060006040848603121561056957600080fd5b61057284610538565b9250602084013567ffffffffffffffff81111561058e57600080fd5b61059a86828701610421565b9497909650939450505050565b6040808252835190820181905260009060208501906060840190835b818110156105e357835115158352602093840193909201916001016105c3565b50508381036020808601919091528551808352918101925085019060005b8181101561061f578251845260209384019390920191600101610601565b50919695505050505050565b634e487b7160e01b600052604160045260246000fd5b634e487b7160e01b600052603260045260246000fd5b60006020828403121561066957600080fd5b61067282610538565b9392505050565b8082018082111561069a57634e487b7160e01b600052601160045260246000fd5b92915050565b6000825160005b818110156106c157602081860181015185830152016106a7565b506000920191825250919050565b6000602082840312156106e157600080fd5b505191905056fea2646970667358221220c61895b5d72df46003c1d9c23e241dde451c7558a8a8bab365de7d4f652a584f64736f6c634300081c0033",
  "linkReferences": {},
  "deployedLinkReferences": {}
}